:100000000C9484090C94CB090C94CB090C94CB0967
:100010000C94CB090C94CB090C94CB090C94CB0910
:100020000C94CB090C94CB090C94FA180C94081F6F
:100030000C94E52A0C94CB090C94CB090C94CB09B5
:100040000C94CB090C94CB090C94CB090C94CB09E0
:100050000C94CB090C94271A0C94CB090C94CB0963
:100060000C94CB090C94CB090C94CB090C94CB09C0
:100070000C94CB090C94CB090C94CB090C94CB09B0
:100080000C94CB090C94CB090C94CB090C94CB09A0
:100090000C94CB090C94CB090C94CB090C94CB0990
:1000A0000C94CB090C94CB090C94CB090631FF09B5
:1000B00074A1010975150026FF00952075088102BD
:1000C0000976150026FF00952075089102C00501EC
:1000D0000902A10185020901A100050919012908E8
:1000E00015002501950875018102050109300931C6
:1000F0001581257F95027508810609381581257FB0
:10010000950175088106050C0A38021581257F9531
:100110000175088106C0C005010980A10185031988
:10012000012AB700150126B700950175108100C09E
:10013000050C0901A101850419012AA00215012657
:10014000A002950175108100C005010906A10105F5
:100150000719E029E7150025019508750181029529
:1001600001750881010507190029FF150026FF0008
:100170009506750881000508190129059505750181
:100180009102950175039101C07267626C6967689D
:10019000742064697361626C65205B454550524F01
:1001A0004D5D3A207267626C696768745F636F6E59
:1001B0006669672E656E61626C65203D2025750A53
:1001C000007267626C6967687420656E61626C6555
:1001D000205B454550524F4D5D3A207267626C6915
:1001E0006768745F636F6E6669672E656E61626CC7
:1001F00065203D2025750A007267626C6967687426
:1002000020746F67676C65205B454550524F4D5DAC
:100210003A207267626C696768745F636F6E6669C3
:10022000672E656E61626C65203D2025750A00446D
:10023000454255473A2064697361626C65642E0AD1
:100240000044454255473A20656E61626C65642EF4
:100250000A003E004C0046004800B2003F00530038
:1002600054005500560040005F00600061005700D8
:10027000AE005C005D005E000100E10059005A0024
:100280005B005800015162000100630001000100A1
:100290000100010001000100010001000100010056
:1002A000010001000100520001003900010050006E
:1002B00051004F0001000100655D635D645D010058
:1002C000010001000100010001000A002530325840
:1002D00020006B6579626F6172645F7265706F7226
:1002E000743A2000646973706C61795F736574752A
:1002F0007032206661696C65640A0000DA028178F8
:10030000D9F1DB20A4A62EAF646973706C61795FAC
:10031000666C6970706564206661696C65640A006A
:1003200000A0C06F6C65645F696E697420636D6462
:10033000206E6F726D616C20726F746174696F6E84
:10034000206661696C65640A0000A1C86F6C656411
:100350005F696E697420636D642073657420312059
:100360006661696C65640A0000AED580A81FD30081
:10037000408D1420007267626C696768745F636FF8
:100380006E6669672E7370656564203D2025640A7A
:10039000007267626C696768745F636F6E66696735
:1003A0002E76616C203D2025640A007267626C69BC
:1003B0006768745F636F6E6669672E736174203D52
:1003C0002025640A007267626C696768745F636FF6
:1003D0006E6669672E687565203D2025640A007287
:1003E00067686C696768745F636F6E6669672E6DB6
:1003F0006F6465203D2025640A007267626C69673E
:1004000068745F636F6E6669672E656E61626C65A6
:10041000203D2025640A007267626C696768745F1A
:10042000636F6E66696720454550524F4D3A0A002A
:100430007267626C696768745F696E69742072675D
:10044000626C696768745F636F6E6669672E6D6F53
:100450006465203D20302E205772697465206465E4
:100460006661756C742076616C75657320746F209D
:10047000454550524F4D2E0A007267626C6967689D
:10048000745F696E6974206565636F6E6669672065
:100490006973206E6F7420656E61626C65642E0AEC
:1004A000007267626C696768745F696E6974207353
:1004B00074617274210A007267626C696768745FA4
:1004C000696E69742063616C6C65642E0A004B650B
:1004D00079626F6172642073746172742E0A000A0B
:1004E0000025303862003A200025303258000A7268
:1004F0002F632030313233343536370A0000047F21
:100500003F1F643214643214783C1E1E140A050026
:10051000000000E0100808C8B080808080808080E3
:1005200040403C14040890180408B04080000000CB
:100530000000000102C4A4FC0000000080000000D4
:1005400000000000000080C858282A100F0000009A
:10055000000000000E090404040402030201010269
:1005600002040810262B32040506000000000000DB
:100570000000E01010F0000000000000000080808B
:1005800080782808102030081020408000000000EB
:1005900000000304081011F901010101010100002C
:1005A0000000000000000110B05055201F000000A6
:1005B000000000000000000001020C10202837029B
:1005C0001E2020180C141E01000000000000000076
:1005D0000000000080402010909090A0C08080809B
:1005E0007008140890101008A47880000000000023
:1005F000000000000708FC0100000000800000016E
:100600000000000000000818EA100F0000000000C1
:10061000000000000000031C20203C0F111F0306F7
:100620001820203C0C121E010000000000000000F9
:1006300000000000008040202020408000000000DA
:10064000E01028102020201048F0000000000000DA
:10065000000000001F20F802010101010101010357
:100660000000000001001030D5201F000000000035
:100670000000000000003F20300C020509121E029D
:100680001C140810202C32010000000000000000A3
:1006900000000000000000000000000000E01C025C
:1006A000050224040402A91EE0000000000000006E
:1006B0000000000000E010086810080403000000BB
:1006C000000000000206827C030000000000000021
:1006D00000000000000102040C1010202020283E21
:1006E0001C20203E0F111F00000000000000000031
:1006F00000000000000000000000000000E01C02FC
:10070000050224040402A91EE0000000000000000D
:1007100000000000E09008186010080403000000CA
:1007200000000000020E827C0300000000000000B8
:1007300000000000000102040C1010202020283EC0
:100740001C20203E0F111F000000000000000000D0
:100750000000000000804040404080000000000099
:1007600000C0404080008040800000000000000089
:100770000000001E21F0040202020203020204042F
:10078000040301000009018080AB04F800000000B0
:100790000000000000031C20203C0F111F0206185F
:1007A0002020380810180404020201000000000094
:1007B0000000000000804040408000000000000079
:1007C00000E0A0204080C020408000000000000029
:1007D0000000003E41F0040202020302020204048F
:1007E00002010000000400404055827C000000002F
:1007F00000000000003F20300C020509121E041802
:10080000100810202834060201010000000000003A
:10081000C02010D030000000000000008080403C6C
:1008200014040890180408B0408000000000000084
:100830000304081011F90101010101010000000089
:1008400000000080C848282A100F000000000000A7
:1008500000000000000001020C10202837020204F2
:100860000810262B320405060000000000000000DE
:10087000E01010F000000000000000008080404008
:100880002C14040890180408B040800000000000F8
:100890000304081011F90101010101010000000029
:1008A0000000000080C048282A100F204A091000CC
:1008B00000000000000001020C1020283702020492
:1008C0000810262B32040506000000000000004E30
:1008D000617669004E756D006F6C65645F72656E60
:1008E00064657239302064617461206661696C6589
:1008F000640A006F6C65645F72656E646572206483
:10090000617461206661696C65640A006F6C65647E
:100910005F72656E646572206F66667365742063CE
:100920006F6D6D616E64206661696C65640A000AB2
:100930000025303258006B6579626F6172645F73B5
:1009400065745F6C65643A20005B735D00290A0082
:100950002575002F002575005D2800256400200006
:10096000256400200025640020002564007C00250B
:10097000303258006D6F7573656B6579205B6274FA
:100980006E7C782079207620685D287265702F61F2
:10099000636C293A205B00000101010101010101A2
:1009A0000102020202020202020203030303030322
:1009B00003030404040404040405050505050606F0
:1009C00006060607070707070808080809090909AE
:1009D0000A0A0A0B0B0B0C0C0C0D0D0D0E0E0E0F54
:1009E0000F0F1010111111121213131414151516E4
:1009F000161717181819191A1A1B1B1C1D1D1E1E55
:100A00001F202021222223242425262627282929A5
:100A10002A2B2C2D2D2E2F303132323334353637D0
:100A200038393A3B3C3D3E3F4041424344454647CE
:100A300048494A4C4D4E4F50515354555658595AA7
:100A40005B5D5E5F616264656668696B6C6D6F704B
:100A500072737577787A7B7D7E8082838587888ABA
:100A60008C8E8F91939596989A9C9EA0A2A3A5A7F1
:100A7000A9ABADAFB1B3B5B7BABCBEC0C2C4C6C9ED
:100A8000CBCDCFD1D4D6D8DBDDDFE2E4E7E9EBEEA6
:100A9000F0F3F5F8FAFDFF7267626C69676874201D
:100AA0006D6F6465205B4E4F454550524F4D5D3A2A
:100AB0002025750A007267626C69676874206D6F23
:100AC0006465205B454550524F4D5D3A2025750ABF
:100AD000007267626C6967687420656E61626C653C
:100AE000205B4E4F454550524F4D5D3A2072676234
:100AF0006C696768745F636F6E6669672E656E61A7
:100B0000626C65203D2025750A007267626C69671A
:100B100068742064697361626C65205B4E4F454563
:100B200050524F4D5D3A207267626C696768745F1E
:100B3000636F6E6669672E656E61626C65203D202D
:100B400025750A007267626C696768742073657442
:100B500020687376205B4E4F454550524F4D5D3AAD
:100B60002025752C25752C25750A007267626C6925
:100B70006768742073657420687376205B45455000
:100B8000524F4D5D3A2025752C25752C25750A0090
:100B90007267626C69676874207261696E626F77F0
:100BA00020736574206873763A2025642C25642CA4
:100BB00025642C25750A00FFAA7F55407267626C78
:100BC000696768742074696D657220656E61626C16
:100BD00065642E0A007267626C69676874207469C4
:100BE0006D65722064697361626C652E0A00222350
:100BF000252628292A2C2D2F3032333536383A3BFA
:100C00003D3E4042434547494A4C4E50515355574B
:100C1000595A5C5E6062646668696B6D6F7173756A
:100C200077797B7D7F81838587898A8C8E9092946A
:100C300096989A9C9E9FA1A3A5A7A8AAACAEAFB177
:100C4000B3B4B6B8B9BBBCBEBFC1C2C3C5C6C7C9C1
:100C5000CACBCCCDCED0D1D2D2D3D4D5D6D7D7D87B
:100C6000D9D9DADADBDBDBDCDCDCDCDCDDDDDDDDCD
:100C7000DCDCDCDCDCDBDBDBDADAD9D9D8D7D7D6D5
:100C8000D5D4D3D2D2D1D0CECDCCCBCAC9C7C6C58C
:100C9000C3C2C1BFBEBCBBB9B8B6B4B3B1AFAEACD2
:100CA000AAA8A7A5A3A19F9E9C9A98969492908E7D
:100CB0008C8A89878583817F7D7B79777573716F56
:100CC0006D6B6968666462605E5C5A595755535132
:100CD000504E4C4A4947454342403E3D3B3A3836E8
:100CE000353332302F2D2C2A2928262523220000A7
:100CF000000000003E5B4F5B3E003E6B4F6B3E00D2
:100D00001C3E7C3E1C00183C7E3C18001C577D5746
:100D10001C001C5E7F5E1C0000183C180000FFE7F2
:100D2000C3E7FF00001824180000FFE7DBE7FF001F
:100D300030483A060E00262979292600407F05050D
:100D40000700407F05253F005A3CE73C5A007F3EA4
:100D50001C1C0800081C1C3E7F0014227F2214006B
:100D60005F5F005F5F0006097F017F000066899575
:100D70006A0060606060600094A2FFA294000804B2
:100D80007E04080010207E20100008082A1C08009D
:100D9000081C2A0808001E10101010000C1E0C1E43
:100DA0000C0030383E383000060E3E0E06000000C3
:100DB0000000000000005F000000000700070000C6
:100DC000147F147F1400242A7F2A1200231308643E
:100DD0006200364956205000000807030000001C3E
:100DE000224100000041221C00002A1C7F1C2A0016
:100DF00008083E0808000080703000000808080855
:100E000008000000606000002010080402003E514D
:100E100049453E0000427F40000072494949460072
:100E20002141494D33001814127F100027454545D4
:100E300039003C4A4949310041211109070036492E
:100E400049493600464949291E00000014000000A7
:100E5000004034000000000814224100141414144F
:100E600014000041221408000201590906003E4105
:100E70005D594E007C1211127C007F4949493600B1
:100E80003E41414122007F4141413E007F49494965
:100E900041007F09090901003E41415173007F086B
:100EA00008087F0000417F4100002040413F0100D1
:100EB0007F08142241007F40404040007F021C0216
:100EC0007F007F0408107F003E4141413E007F09C2
:100ED000090906003E4151215E007F09192946009B
:100EE00026494949320003017F0103003F40404049
:100EF0003F001F2040201F003F4038403F00631448
:100F0000081463000304780403006159494D430049
:100F1000007F41414100020408102000004141418E
:100F20007F000402010204004040404040000003F2
:100F3000070800002054547840007F2844443800BB
:100F4000384444442800384444287E0038545454DB
:100F5000180000087E0902001824241C78007F086D
:100F60000404780000447D4000002040403D000023
:100F70007F102844000000417F4000007C0478047A
:100F800078007C08040478003844444438007C1815
:100F900024241800182424187C007C080404080069
:100FA00048545454240004043F4424003C4040204E
:100FB0007C001C2040201C003C4030403C00442869
:100FC000102844004C9090907C004464544C4400A1
:100FD000000836410000000077000000004136089C
:100FE00000000201020402003C2623263C0000000F
:100FF00000E0FEFFFEF8C00000000000E0FCFFFE85
:10100000F0C00000000000000000013EE080700E13
:101010000100000000073CE08078070000000000AD
:1010200000000000000000000000000000E0FEFFE3
:10103000FEF8C00000000000E0FCFFFEF000000031
:101040000000013EE080700E0100000000073CE05F
:101050008078070000000000000000000000000091
:101060000000000000000000000000000000000080
:101070000000000000000000000000000000000070
:101080000000000000000000000000000000000060
:101090000000000000000000000000000000000050
:1010A0000000000000000000000000000000000040
:1010B000F8FFFF1F071FFFFEF0C0F8FFF707077FCD
:1010C000FFFFF800C0380C186080000000F00C042E
:1010D000F41C00000000000080C0FCE6C3C1C1C3D6
:1010E000E6FCC0800000000000000000F8FFF707E9
:1010F000071FFFFEF0C0F83F8F0F3FFFFFFE80F09D
:101100000C04F41C000000000000000000000000BF
:1011100000000000000000000000000000000000CF
:1011200000000000000000000000000000000000BF
:1011300000000000000000000000000000000000AF
:10114000000000000000000000000000000000009F
:10115000000000000000000000000000000000008F
:101160000000000000000000000000000000001F60
:101170001F1F0700000000031F1F0F010306F800D8
:10118000077F3F0EC138070E70831C601E03C03EF0
:1011900001000000000000003F7FFFFFF9C0C0F920
:1011A000FFFF7F3F000000000000001F1F1F070619
:1011B000F80000733F0FC138070F7083077F1F03CC
:1011C000C03E010000000000000000000000000020
:1011D000000000000000000000000000000000000F
:1011E00000000000000000000000000000000000FF
:1011F00000000000000000000000000000000000EF
:1012000000000000000000000000000000000000DE
:1012100000000000000000000000000000000000CE
:1012200000000000000000000000000000006F6CE3
:1012300065645F6F6E20636D64206661696C6564D0
:101240000A0000AF6F6C65645F6F666620636D6453
:10125000206661696C65640A0000AE5B435D005BFB
:10126000445D005B535D005B575D005B525D0009B0
:10127000025B00030100A0FA090400000103010160
:101280000009211101000122400007058103080027
:101290000A090401000103000000092111010001F5
:1012A000227B000705820320000A090402000203D2
:1012B000000000092111010001222200070583031B
:1012C00020000107050303200001120100020000B5
:1012D0000008776D051701030102000112034D009C
:1012E000750072007000680050006100640000002A
:1012F00012034D00650063006800570069006C0030
:10130000640000000403090411241FBECFEFDAE0DB
:10131000DEBFCDBF04B603FE27C08091EF049091DD
:10132000F004A091F104B091F2048730904BA740F3
:10133000B04BD1F41092EF041092F0041092F1042B
:101340001092F20414BE84B7877F84BF0FB6F8945E
:10135000A895809160008861809360001092600081
:101360000FBEE0E0F8E3099511E0A0E0B1E0EAE3A8
:10137000FEE602C005900D92AA3CB107D9F724E021
:10138000AAECB1E001C01D92AF3EB207E1F70E94A6
:101390000C2B0C94F7360C940000FF93EF93E09124
:1013A000CA01F091CB01309709F00995EF91FF91B7
:1013B0000895FC018591803011F0EFDFFBCF089597
:1013C000FF27E0E230E247FF0CC0419597FF09C0DC
:1013D000EDE26095709580959095611D711D811D60
:1013E000911D27FF02C0219530E350E2AA27660F26
:1013F000771F881F991FAA1FA41710F0A41B6395BD
:101400005A95A9F7AA3008F0A95FA05DAF93F395AC
:10141000611571058105910541F7ED3211F4EF93E6
:10142000F395F21718F43F93F395FBCF8F91B5DF47
:10143000FA95E1F70895E991F9918591803021F0CD
:10144000853219F0AADFF9CF089520E0E89455918C
:101450005532C1F3503311F4689455915A3348F41E
:10146000505390F3220F022E220F220F200D250F32
:10147000F4CF0EF4219589919991533619F353378E
:1014800029F1533559F1BC0188279927E8945C3636
:1014900021F48991999168945591543639F446EF25
:1014A0007EF077FF0DC08FEF9FEF0AC055374AE0FF
:1014B00039F0583540E121F0523642E009F0089504
:1014C000FF93EF937DDFEF91FF91B7CFFF93EF9302
:1014D000FC0181918030B9F360DFFBCFFF93EF9384
:1014E00068DFF1CFDF93CF93CDB7DEB72596A3DFCB
:1014F000CF91DF910895CF93DF934091ED04509108
:10150000EE044D5E52409A01205A3F4F2130324046
:10151000C0F020E032E0241B350B6091EB027091AB
:10152000EC02FC01CA01240F351FC1E0D0E0821794
:10153000930750F07093EC026093EB02DF91CF9130
:10154000089520E630E0E9CF4491DC01A351BD4F7E
:101550005C91451781F04C93AC01A5E056954795F9
:10156000AA95E1F7DE0102C0AA0FBB1F4A95E2F778
:10157000AD016A2B752B01963196D9CFE8EDF0E0DD
:1015800080818E7F80831092E2001092DA001092A8
:10159000E100A0EEB0E08C9181608C9380818F7728
:1015A000808319BCA7EDB0E08C918E7F8C938081F5
:1015B0008F7E80831092D10208952091E4003091B3
:1015C000E50095E6A9012091EC00822F817020FFB3
:1015D00006C08091E80080FF06C080E00895209159
:1015E000E80022FD1AC08091DE02882389F0853050
:1015F00089F08091EB0085FD0FC02091E4003091CF
:10160000E50042175307F9F29150E1F684E008959E
:1016100082E0089583E0089581E00895EF92FF92BB
:101620000F931F93CF937C018B010E94DD0AC82F7B
:10163000811117C08091E80085FD0BC08091E80002
:101640008E778093E8000E94DD0A882399F3C82FE3
:1016500008C0F70181917F018093F10001501109C9
:1016600049F78C2FCF911F910F91FF90EF90089524
:101670008091E00287FF13C08091E80082FF06C0DE
:101680008091E8008B778093E80004C08091DE02AF
:101690008111F2CF08958091DE028823D9F38091E1
:1016A000E80080FFF8CF8091E8008E77ECCF982F8C
:1016B0009093E900242F762F50E0891731F0709134
:1016C000EC002091ED005091F00021FD07C09F5FDC
:1016D000973071F78093E90081E008953091EB0035
:1016E0003E7F3093EB003091ED003D7F3093ED0075
:1016F0003091EB0031603093EB007093EC0020935D
:10170000ED005093F0002091EE0027FDE0CF80E047
:101710000895CF92DF92EF92FF920F931F93CF9392
:10172000DF93C8EDD0E088818F7E8883E7EDF0E01D
:1017300080818160808384E082BF81E08093D102D8
:1017400088818E7F888302EE10E0F801108210926B
:10175000DA0081EEC82ED12CF601108288818F77B5
:10176000888388818068888388818F7D888319BC7D
:101770001092DE021092DF021092DD021092DC0263
:1017800090EEE92EF12CF70180818B7F8083888198
:101790008160888342E060E080E00E94570BF601A0
:1017A00080818E7F8083F801808181608083808149
:1017B00088608083F70180818E7F8083888180614B
:1017C0008883DF91CF911F910F91FF90EF90DF9071
:1017D000CF900895FC018091E6029091E702861770
:1017E0009707A0F06115710529F49091E8009E77A4
:1017F0009093E80090E06115710551F4911108C0D3
:101800008091E80082FF34C080E00895BC01F2CFEF
:101810008091DE028823C1F18530C1F18091E8001A
:1018200083FD30C08091E80082FDEACF8091E8001E
:1018300080FFE1CF8091F3002091F200382F6115F5
:10184000710519F02830310558F091E02830310544
:1018500009F090E02091E8002E772093E800CBCFAC
:1018600081918093F100615071092F5F3F4FE7CF65
:101870008091DE02882341F0853041F08091E800BC
:1018800083FFBECF81E0089582E0089583E008954C
:101890008091D302089587E797E79093010880939A
:1018A000000888E19AE00FB6F894A895809360004C
:1018B0000FBE90936000FFCF2FB7F8946091C702DE
:1018C0007091C8028091C9029091CA022FBF0895F9
:1018D0002091C4023091C5022817390771F0909306
:1018E000C5028093C402E091C202F091C302309716
:1018F00021F00084F185E02D099408952091C00223
:101900003091C1022817390771F09093C10280937A
:10191000C002E091C202F091C302309721F006802C
:10192000F781E02D09940895E091C202F091C3027D
:10193000309721F00190F081E02D099480E0089526
:101940002091B30236E0839FC0011124629F800D75
:10195000911D1124811522E0920714F090E080E09F
:1019600083519D4F9093EE048093ED040895FA0106
:10197000811101C0FB01099408958091AE02982F56
:101980009E7F29F4817082608093AE0208958A342C
:10199000E8F381708864F8CFAF92BF92DF92EF9244
:1019A000FF920F931F93CF93DF93082F162FE90118
:1019B000E42FF0E0E956F64F611110C0E4915E2F7C
:1019C0004E2F4983E8835A83DF91CF911F910F9166
:1019D000FF90EF90DF90BF90AF900895E62EF12C2E
:1019E0004491D42EE42FF0E026E0829FC001112420
:1019F0002FEF30E0B9010E94F133802F90E0880F83
:101A0000991F55E5569FD001579FB00D11248A1B91
:101A10009B0B982F990F890F5901AE18BF08AE9EE6
:101A2000D001AF9EB00DBE9EB00D11245B2F189F4C
:101A300080011124012F11275901A01AB10AAE9E6D
:101A40008001AF9E100DBE9E100D11245901A81AE1
:101A5000B108AE9CC001AF9C900DBE9C900D1124AE
:101A6000892F9927281B390B2E9FC0012F9F900D7E
:101A70003E9F900D1124E92F62307105A1F050F4C2
:101A80006115710509F49DCF6130710581F0EB2F6F
:101A9000512F97CF6430710569F080F06630710581
:101AA00009F48FCFF4CFE42F4B2F592F8ACFE42F97
:101AB000412F87CFEB2F542F492F83CF4B2F5D2DF5
:101AC000E12F7FCF409186028D3E59F480918702AD
:101AD00087FF0DC01092870241110BC010927F0248
:101AE00008C08E3E81F48091870218169CF344232F
:101AF00081F08091880290918902892B09F05AC067
:101B000010927D0208958F3E49F447FFF0CF109266
:101B10008602809187028111ECCFE0CF803F19F4DB
:101B20001416ACF3E4CF90918802893F29F419167A
:101B3000F4F610928802DBCF8A3F19F497FFD7CFD3
:101B4000F8CF909189028B3F29F497FFD0CF109264
:101B50008902CDCF8C3F19F41916CCF3C8CF9FE082
:101B6000980F983090F4815F990B21E030E0B90133
:101B700002C0660F771F8A95E2F7CB01809590919E
:101B80008502892380938502B2CF8D3F31F4809105
:101B90007E028E7F80937E02AACF8E3F21F48091B9
:101BA0007E028D7FF7CF8F3F09F0A1CF80917E021B
:101BB0008B7FF0CF089580917E0280FD16C081FD5D
:101BC00016C082FD16C080917D028823A1F0883264
:101BD00080F428E0829FC001112468E270E00E9436
:101BE0001134862F672B39F0089582E0089584E040
:101BF000089588E0089581E0089580917E0280FD37
:101C000014C081FD14C082FD16C080917F0288231C
:101C100081F0843180F422E3829FC001112464E1C9
:101C200070E00E941134862F08958CE0089589E1B8
:101C3000089585E0089582E308958D3E31F40E9471
:101C4000FD0D81958093870208958E3E19F40E94C0
:101C5000FD0DF8CF8F3E31F40E94FD0D81958093EC
:101C600086020895803F19F40E94FD0DF8CF893F48
:101C700029F40E94DB0D8093880208958A3F21F4A5
:101C80000E94DB0D8195F7CF8B3F31F40E94DB0D75
:101C900081958093890208958C3F19F40E94DB0D91
:101CA000F8CF9FE0980F983070F4815F990B21E096
:101CB00030E001C0220F8A95EAF780918502822BDD
:101CC0008093850208958D3F31F480917E0281607A
:101CD00080937E0208958E3F21F480917E0282607F
:101CE000F7CF8F3FB9F780917E028460F1CFF894EF
:101CF000E82FE295EF70F0E031A1282F2F7081E0FE
:101D000090E001C0880F2A95EAF7982F90959323C9
:101D100091A392A1892B82A37894089590912D028A
:101D200092FF06C0282F28712830F9F4877F84603D
:101D300093FF06C0282F28712831F1F4877E846133
:101D400020912E0220FF06C0382F38713830D9F488
:101D5000877F816021FF06C0282F28712831D1F4A8
:101D6000877E816194FD877E0895282F2471243019
:101D7000F9F68B7F8860DCCF282F2471243101F79E
:101D80008B7E8861DDCF382F3171313019F78E7F2E
:101D90008860E0CF282F2171213121F78E7E886164
:101DA000E1CFCF93DF93EC018238910581F1B0F55B
:101DB0008133910509F491C020F58932910509F428
:101DC00085C08A9709F490C0C11520E5D20708F0B4
:101DD000A7C0C11530E4D30708F0F6C0CF3BD1054A
:101DE00008F089C0C83AD10508F0E1C0C53AD1056C
:101DF00008F0D5C0C430D105F8F4C130D105E1F008
:101E000040C08533910509F45AC0C997E9F680911D
:101E10002D02837089F0C0EED0E00EC0833E9105A4
:101E200099F170F4803E910501F1823E910561F6D1
:101E300080912D0282FD21C0CE01DF91CF910895C6
:101E4000863E910561F1873E910571F1843E9105D1
:101E500009F0BACF80912E0281FFEECF80912D0242
:101E6000C7EED0E084FD0DC0E7CF80912D0280FD4C
:101E7000FEC090912E0290FFDFCFC3EED0E084FF32
:101E8000DBCFD0E0C0E0D8CF80912D0282FDF2C040
:101E900090912E0290FDBFCF84FFCECFF2CF8091E4
:101EA0002D0283FDDDCFC8CF80912D0283FDE5C0DB
:101EB00090912E0291FFF0CFC4EED0E0BDCF809183
:101EC0002D0285FFB9CFC9E2D0E0B6CF80912D02B7
:101ED00085FFB2CFC5E3D0E0AFCF80912D0286FF62
:101EE000ABCFCAE2D0E0A8CF80912D0286FFA4CF6D
:101EF000C1E3D0E0A1CFCF3FD10509F058F4CD3EEA
:101F0000D10508F05FC0CE01805E9109089708F402
:101F100093CFB7CFC11540E2D40708F48DCFB1CF2E
:101F2000C11584E5D807A0F4C11593E5D90708F0D9
:101F30007CC0C11522E5D20708F066C0C11531E5A5
:101F4000D30708F444C0DC2FCC27C16FD06A74CF0C
:101F5000C1154AE5D40778F4C11589E5D80708F01A
:101F600078C0C11598E5D90708F48BCFDC2FCC27B2
:101F7000C06FD06A61CFCE0190568115904208F0B3
:101F800080CF8D2F8F710E948E0E90E0982F882722
:101F900088279F719C012C2BE901D0624DCFC55A37
:101FA000D0E0C35CDE4FC881D0E0D06445CFC85AD2
:101FB000D0E0CC0FDD1FC05CDE4F0990D881C02D72
:101FC000D4643ACFD06538CFDF70D06A35CFCE0138
:101FD00064E0969587956A95E1F783702C2F269596
:101FE0002695237040E2249F90011124382B8C2FDA
:101FF0008370C1E0D0E002C0CC0FDD1F8A95E2F70C
:10200000C22BD32BDC6818CFCE018370992721E037
:1020100030E002C0220F331F8A95E2F7C695C695BD
:1020200080E2C89FE0011124EBCFCE018370992795
:1020300021E030E002C0220F331F8A95E2F7C695F7
:10204000C69590E2C99FE0011124C22BD32BDA6818
:10205000F3CE8C2F8F700E948E0E34E0D695C795EC
:102060003A95E1F7CF709C2FEC01D069E5CEC9E33A
:10207000D0E0E2CEC2EED0E0DFCEC6EED0E0DCCEE5
:10208000EEECF1E09191891303C0DF0111971C92EE
:1020900091E0E43DF907B1F70895AEECB1E0EFEF60
:1020A00090E02D91821751F0EF3F19F4211101C0FA
:1020B000E92F9F5F9630A9F7EF3F09F408950E2EA0
:1020C000000CFF0BE453FE4F8283089580912002A1
:1020D0009091EF01981301C008958F5F8770FACF38
:1020E000AF92BF92CF92DF92EF92FF920F931F9326
:1020F000CF93DF93C0904E02D0904F02E0905002F9
:10210000F0905102409124025091250260912602E4
:1021100070912702C42AD52AE62AF72ACFE1D0E017
:10212000082F10E025E0929F000D111D11249EE163
:10213000A92EBC2ED701C6010C2E04C0B695A795BA
:10214000979587950A94D2F780FD0FC0219788F75D
:10215000B12C8B2DDF91CF911F910F91FF90EF90BC
:10216000DF90CF90BF90AF900895AC9EF001AD9EF0
:10217000F00D1124E00FF11FEE0FFF1FEE5AFD4F7F
:10218000859194910E94D10E019701F3E2CFCF93F4
:10219000DF93EC010E947010EC2FF0E095E0D99FE6
:1021A000E00DF11D11249EE1899FE00DF11D112428
:1021B000EE0FFF1FEE5AFD4F85919491DF91CF9165
:1021C0000C94D10EE92FEE0FEE0F9E0F890F982F72
:1021D000977086958695869525E0829FF00111245B
:1021E000EB52FE4F50E040E080E0219130E0092EBC
:1021F00002C0369527950A94E2F721703327042E02
:1022000001C0220F0A94EAF7822B4F5F5F4F4530DF
:10221000510559F70895E92FEE0FEE0F9E0F890F24
:10222000982F977041E001C0440F9A95EAF7869580
:102230008695869595E0899FF0011124EB52FE4F1B
:1022400030E020E070E05191DF011197CB01022EC8
:1022500002C0969587950A94E2F78170819585274B
:10226000842385278C932F5F3F4F2530310559F705
:102270000895FC01808191810E94C710292F2F7041
:1022800092959F7092509E3078F4E92FF0E0E750DD
:10229000F94C0C946634803F19F020F4883E20F409
:1022A00081E00895843FE1F380E00895883EC0F323
:1022B000813FD1F7F5CF822F869586958695089533
:1022C000829590E09C01220F331F220F331F2C7C3C
:1022D00095958795959587958373282B30E0C9014F
:1022E000880F991F8A7A359527952575822B089531
:1022F000CF92DF92EF92FF926C01EE24FF2420E058
:10230000C114D104E104F10419F0C701B60120E1C0
:10231000C72ED82EE92EFF24C114D104E104F10404
:1023200019F0285FC701B6016B017C0154E0F694F7
:10233000E794D794C7945A95D1F7C114D104E10416
:10234000F10419F02C5FC701B6016B017C0142E07A
:10235000F694E794D794C7944A95D1F7C114D10461
:10236000E104F10419F02E5FC701B6019695879537
:1023700077956795672B682B692B09F02F5F822F64
:10238000FF90EF90DF90CF900895CF92DF92EF9281
:10239000FF920F931F93CF93DF936C017B0164E651
:1023A00070E088E70E94F032EC0197FD12C010E067
:1023B00000E0F601E00FF11F849164E670E00E94F6
:1023C0006A33EC01892B29F40F5F1F4F0E151F058F
:1023D00081F70E94ED33CE01DF91CF911F910F91D4
:1023E000FF90EF90DF90CF9008958091BE02909182
:1023F000BF02911103C091E089270895882389F0D5
:1024000062E070E089E592E10E94C511892B39F004
:1024100084E492E10E94D9098091BE02089510924D
:10242000BE028091BE02E7CFCF93C091BE028091E1
:10243000BF028823F1F00E945C0C60547B428E4FF7
:102440009F4F6093BA027093BB028093BC0290933B
:10245000BD02C1110CC062E070E082E492E10E9412
:10246000C511892B49F08EE292E10E94D909C091F1
:10247000BE028C2FCF91089581E08093BE02F7CFEA
:102480009FB7F8941092CF029FBF9091DE029430D4
:1024900009F048C02091E9002F703091EC00932F93
:1024A000917030FD90E8922B23E02093E900209179
:1024B000EB0020FF34C02091EE0027FF30C02091B8
:1024C000CE02222321F02091E80025FF28C010929F
:1024D000CE0226E03091E80035FF14C08093F10071
:1024E0008091E80085FD27C08091E80080FFFCCF47
:1024F0008091E8008E778093E8009F709093E900C8
:1025000080E008953091DE02343049F43091EB00E0
:1025100035FD05C0215041F481E08093CE029F70CB
:102520009093E9008FEF0895EFE9FFE03197F1F71D
:1025300000C00000CFCF8FB7F89421E02093CF02E6
:102540008FBFDBCF9091DE02943031F58093CB02C8
:102550007093CD026093CC0282E08093E9008FEF0C
:102560009091E800815095FD06C095ED9A95F1F7A0
:1025700000008111F5CF8091E80085FF0DC050E08B
:1025800040E063E070E08BEC92E00E940E0B8091E3
:10259000E8008E778093E8000895BC0184E00C94F5
:1025A000A212BC0183E00C94A2129C0182E08093F1
:1025B000E9009FEF8091E800915085FD06C085ED10
:1025C0008A95F1F700009111F5CF8091E80085FF21
:1025D0000CC050E040E066E070E0C9010E940E0BC4
:1025E0008091E8008E778093E8000895CF93DF9381
:1025F000EC0181E08093E9008FEF9091E800815039
:1026000095FD06C095ED9A95F1F700008111F5CF83
:102610008091E80085FF14C050E040E068E070E081
:10262000CE010E940E0B8091E8008E778093E80027
:1026300088E0FE01A4EDB2E001900D928A95E1F7E9
:10264000DF91CF9108958091AE0280FD0AC0E6E946
:10265000F2E0118210821282339652E0EE3AF507D0
:10266000C1F7849A31B33F7E21B320614FB7F8940C
:1026700086E992E0FC015191CF0168E021BB0000A6
:1026800000C057FF31BB550F000000C000C000C0A4
:1026900031BB00C06A9591F7F2E08E3A9F0751F77F
:1026A0004FBF8FE594E00197F1F700C00000089557
:1026B000EF92FF920F931F93CF93DF938C01C6E9A4
:1026C000D2E0F12CE12CF80194816091B00280916C
:1026D000AF02F4E0EF16F104FCF49923F9F09E0147
:1026E0004091B1020E94CC0C2FEFE21AF20A23961D
:1026F00088E0E816F10439F70E942313F801848179
:1027000090E00196817099278483DF91CF911F918A
:102710000F91FF90EF900895992309F39E0140E0F7
:10272000E1CF8F929F92AF92BF92CF92DF92EF92C2
:10273000FF920F931F93CF93DF93EC014C81042FF3
:1027400010E09801D8010E9474349B01AC010E94F2
:102750008A344B015C01E0E2F0E0E01BF10BA5E5FF
:10276000B0E0AC019B010E948A346B017C019F01A7
:10277000DF010E946C349B01AC010E9495349B01E7
:10278000AC01280D391D4A1D5B1DC701B6010E9411
:102790002534F22E822F90E039E23F15D8F143E044
:1027A000249F9001112435952795122F109596E9B5
:1027B000C92E92E0D92E00E085E5E82EEF188E2D87
:1027C00001FD8F2D9601412F6091B0020E94CC0C2B
:1027D0000F5F53E0C50ED11C083089F70E94231308
:1027E0009C8181E0992319F0903219F48FEF809346
:1027F0001F0180911F01890F8C83DF91CF911F9161
:102800000F91FF90EF90DF90CF90BF90AF909F908F
:102810008F90089525E530E0A901481B590BCA01A6
:102820009A01220F331F280F391F37FFBCCF2F5FAC
:102830003F4FB9CF0F931F93CF93DF93C6E9D2E0F9
:10284000FE01118210821282339682E0EE3AF8077E
:10285000C1F710E000E080919402082E000C990B63
:10286000081719078CF180911E01082E000C990B96
:10287000801791074CF19E014091B1026091B00226
:102880008091AF020E94CC0C0F5F1F4F239608303F
:10289000110509F70E94231380911D019091940264
:1028A000980F9093940220911E01280F20931E01EF
:1028B000121614F497301CF0819580931D01DF915E
:1028C000CF911F910F910895198218821A82DCCF3F
:1028D000CF92DF92EF92FF920F931F93CF93DF93EC
:1028E000FC018281DD24DA9480FD02C0DD24D394D2
:1028F000C6E9D2E010E000E0198218821A8294E062
:10290000E92EF12CC12C809193028C0D8930CCF1F1
:102910008770082E000C990B8017910791F4809115
:10292000B1028E9DA0018F9D500D112455954795A4
:10293000559547959E016091B0028091AF020E942B
:10294000CC0CCD0CF1E0EF1AF108E9F60F5F1F4F48
:1029500023960830110581F60E942313809193027B
:1029600091E0D91214C0811110C087E080939302C6
:10297000DF91CF911F910F91FF90EF90DF90CF905B
:10298000089587FFC6CF885FC4CF8150EFCF90E016
:10299000019687709927EACFEF92FF921F93CF930A
:1029A000DF93EC0186E9E82E82E0F82E10E08C81BE
:1029B00097014091B1026091B002810F0E94CC0C4E
:1029C000115E83E0E80EF11C183F89F70E94231383
:1029D0009A818C8190FF08C08F5F8C83DF91CF91AB
:1029E0001F91FF90EF9008958150F7CF9091AE0224
:1029F00090FF0CC0E6E9F2E0818360834283339666
:102A000092E0EE3AF907C1F70C94231308950F935F
:102A10001F93CF93DF9300D00F92CDB7DEB78C0119
:102A20008091950281110AC09E012F5F3F4F4FEFA9
:102A30006FEF0E94CC0C8A8180939502F80164812B
:102A4000613069F08091950240E0662361F040E0DA
:102A5000623011F44091950280E060E004C0609122
:102A6000950240E080E00E94F614F801848190E035
:102A7000019663E070E00E94113484830F900F9000
:102A80000F90DF91CF911F910F910895CF93DF9316
:102A900000D00F92CDB7DEB79091AE0290FF0AC082
:102AA0009E012F5F3F4F0E94CC0C4B8169818A8130
:102AB0000E94F6140F900F900F90DF91CF91089520
:102AC000CF93DF93EC01EEEAF2E0438162818C81E7
:102AD0000E9446158C818F5F8C83DF91CF91089582
:102AE000CF93DF93EC01EC81F0E0E251F44F44919D
:102AF000EEEAF2E0628181810E9446158C818F5F4F
:102B00008C83DF91CF9108951F93CF93DF93162F7E
:102B10008A3031F481E0DF91CF911F910C9433160C
:102B20008D3011F480E0F7CFC091ED04D091EE0428
:102B300096E0FE01A4EBB2E001900D929A95E1F7C8
:102B4000803EA8F186E0FE0111928A95E9F7C091D6
:102B5000ED04D091EE04111136C046E050E0BE0104
:102B600084EB92E00E94B3349E012D5E3240892BAB
:102B7000A9F52A5F3F4F4091B302642F70E0C9016D
:102B80000E94F133481B463010F4240F311D2115EB
:102B900072E0370710F030E020E023513D4F3093D2
:102BA000EE042093ED04DF91CF911F910895F6E09C
:102BB0008F9FB00111246251734F46E050E0CE0167
:102BC0000E949D34C4CF9E012A5F3F4FFE012E1705
:102BD0003F0719F2808180958193F9CFC90145E0C3
:102BE000969587954A95E1F741E050E0BA0102C019
:102BF000660F771F8A95E2F7CB016091EB02709127
:102C0000EC02862B972BB9016B5F7F4FE5E0769541
:102C10006795EA95E1F702C0440F551F6A95E2F700
:102C2000842B952B9093EC028093EB02A2CFFF9222
:102C30000F931F93CF93DF93EC01F62EFC010190CD
:102C40000020E9F78F0101501109C017D10730F0BA
:102C5000DF91CF911F910F91FF9008956F2D899172
:102C60000E948415F2CFCF93382FE091ED04F091BC
:102C7000EE04ED5EF2402091B302622F70E0CF01CE
:102C80000E94F133281B822F332369F066E00E94F3
:102C90000534C82FC15010F4CF91089560E080E250
:102CA0000E948415F7CF9F01280F311D2115324056
:102CB00018F080E0F0E0E0E08E0F9F2F911D83512F
:102CC0009D4F9093EE048093ED04E6CFCF93DF9376
:102CD000EC01FE018491811105C081E0DF91CF916B
:102CE0000C94331660E00E9484152196F2CF109266
:102CF00092028091900280FF08C085ED9BE09F9337
:102D00008F930E94720A0F900F9008958091AE02E7
:102D10008E7F8093AE028091900280FF0CC01F9244
:102D20001F928AE09BE09F938F930E94720A0F90FC
:102D30000F900F900F900E9477162FEF80E792E090
:102D4000215080409040E1F700C000000C94231314
:102D5000EF92FF920F931F93CF93DF938091230203
:102D600090912202892B90912102892B8093CC0192
:102D7000E091C202F091C3023097C9F10280F38161
:102D8000E02D8CEC91E009958091900282FF2FC09C
:102D900080FF04C082ED92E00E94D909CCECD1E022
:102DA00084EDE82E81E0F82E0CEC12E08091900288
:102DB00080FF0BC088811F928F931F930F930E94F7
:102DC000720A0F900F900F900F902196EC16FD064F
:102DD00069F78091900280FF0AC08AEC92E0DF914F
:102DE000CF911F910F91FF90EF900C94D909DF9133
:102DF000CF911F910F91FF90EF900895882341F09C
:102E00008095909123028923809323020C94A81625
:102E10000895882339F090912302982B90932302F0
:102E20000C94A8160895CF92DF92EF92FF926B0157
:102E30007C010E94BD0CB701A60188E090E0FF90E4
:102E4000EF90DF90CF900C94E6342F923F924F9208
:102E50005F926F927F928F929F92AF92BF92CF922A
:102E6000DF92EF92FF920F931F93CF93DF9300D0E7
:102E700000D0CDB7DEB7182F462E542E222E9091BB
:102E8000AE0290FF46C0E92FE695AE2FB0E0AB56FC
:102E9000BE4F8C91809391029E7F923009F050C07A
:102EA0009E012F5F3F4F812F0E94CC0C4B81698187
:102EB0008A810E94F6141093AF024092B0025092A1
:102EC000B102222009F49DC06091AE027091AF0260
:102ED0008091B0029091B1020E94131780919002EC
:102EE00080FF17C08091B1021F928F938091B00232
:102EF0001F928F938091AF021F928F938BE69BE07E
:102F00009F938F930E94720A0FB6F894DEBF0FBE94
:102F1000CDBF0F900F900F900F90DF91CF911F9129
:102F20000F91FF90EF90DF90CF90BF90AF909F9068
:102F30008F907F906F905F904F903F902F9008956B
:102F4000823019F45090B102B6CF863019F4109146
:102F5000AF02B1CF8930D9F3893109F0ACCFE95153
:102F60002E2F21702C838E2F80958170382EE69520
:102F7000F0E0E954F44FC590D490DD2436E9A32E57
:102F800032E0B32E912C812CF12CE12C40E9642EFF
:102F90004BE0742EC40123E0969587952A95E1F7BE
:102FA0002C81012F21112BC0080F8091900280FFEE
:102FB00011C0DF92CF921F923F921F920F93FF9208
:102FC000EF927F926F920E94720A0FB6F894DEBF62
:102FD0000FBECDBF9501452D642D802F0E94CC0CD6
:102FE0009FEFE91AF90A8C0C9D1C23E0A20EB11C7C
:102FF00088E0E816F10471F60E9423135CCF081BE9
:10300000D4CF8091900280FF84CF1F925F921F9255
:103010004F921F921F9384E49BE072CFEEEAF2E09E
:10302000438128E0421B08F440E021E06281818175
:103030000C942517EEEAF2E0438128E0420F08F4F1
:103040004FEF21E0628181810C942517EEEAF2E0D6
:10305000628128E0621B08F460E021E04381818105
:103060000C942517EEEAF2E0628128E0620F08F482
:103070006FEF21E0438181810C942517EEEAF2E0A5
:10308000818121E04381628188500C942517EEEA0A
:10309000F2E0818121E043816281885F0C942517F1
:1030A0008091B202882319F081508093B20260911E
:1030B000AE027091AF028091B0029091B1020C9477
:1030C00013178091B202833018F48F5F8093B2029D
:1030D0006091AE027091AF028091B0029091B10206
:1030E0000C941317EEEAF2E083E0808311828FEFF5
:1030F00082838383148260817181828193810C94A5
:103100001317CF9384E090E00E94C034C82F82E26E
:1031100090E00E94C034982F8C2FCF91089569EED3
:103120007EEF90E080E00E94F23460E082E090E088
:103130000E94D43460E083E090E00E94D434109286
:10314000240210922502109226021092270260E0BB
:1031500084E090E00E94D43460E082E290E00E943B
:10316000D43460E085E090E00E94D43460E086E0F2
:1031700090E00E94D4346FEF87E090E00E94D43456
:1031800040E050E0BA0188E090E00E94E63460E060
:103190008DE090E00E94D43440E050E0BA0188E134
:1031A00090E00E94E63460E087E190E00E94D43431
:1031B00040E050E0BA018CE190E00E94E63470E01B
:1031C00060E080E290E00E94F23440E050E0BA011A
:1031D00088E190E00E94E63440E050E0BA018FE0E0
:1031E00090E00E94E63440E050E0BA0183E190E0D4
:1031F0000C94E6341F920F920FB60F9211242F9366
:103200003F934F935F936F937F938F939F93AF936E
:10321000BF93EF93FF938091E10082FF15C08091EF
:10322000E20082FF11C08091E1008B7F8093E1007A
:103230002091D0022F5F822F62E30E9405349923F0
:1032400009F4BEC02093D0028091DA0080FF28C02C
:103250008091D80080FF24C08091DA008E7F809317
:10326000DA008091D90080FFE1C080E189BD82E170
:1032700089BD09B400FEFDCF81E08093DE028BE5BD
:1032800092E10E94D9098091D102811109C00E9466
:10329000BE0A0E94890B8091E20084608093E20064
:1032A0008091E10080FF1BC08091E20080FF17C089
:1032B0008091E2008E7F8093E2008091E200806145
:1032C0008093E2008091D80080628093D80019BC7E
:1032D00085E08093DE0283E692E10E94D909809125
:1032E000E10084FF2DC08091E20084FF29C080E1CD
:1032F00089BD82E189BD89B5982F917080FFFBCF90
:103300008091D8008F7D8093D8008091E1008F7EDE
:103310008093E1008091E2008F7E8093E2008091B3
:10332000E20081608093E2008091DF02882309F44B
:1033300087C084E08093DE0287E692E10E94D9098B
:103340008091E10083FF2BC08091E20083FF27C0C2
:103350008091E100877F8093E10082E08093DE022C
:103360001092DF028091E1008E7F8093E1008091D6
:10337000E2008E7F8093E2008091E2008061809382
:10338000E20042E060E080E00E94570B8091F00094
:1033900088608093F0008BE692E10E94D909FF914A
:1033A000EF91BF91AF919F918F917F916F915F91BD
:1033B0004F913F912F910F900FBE0F901F90189536
:1033C0001092D0028091CF02882309F43DCF8091E2
:1033D000DE028430C1F49091E9009F702091EC00EE
:1033E000822F817020FD80E8892B93E09093E90083
:1033F0009091EB0090FF04C09091EE0097FD08C003
:103400008F708093E9001092CF021ECF1092F100CE
:103410009091E80095FDFACF9091E80090FFF0CFF1
:103420009091E8009E779093E800EACF19BC109243
:10343000DE028FE592E10E94D9091092D10230CFCD
:103440008091E30087FD93E09093DE0275CF78943E
:103450001F921FB61F9211248F939F93AF93BF9318
:103460008091C7029091C802A091C902B091CA028E
:103470000196A11DB11D8093C7029093C802A0932D
:10348000C902B093CA02BF91AF919F918F911F90D3
:103490001FBE1F9018959C014FB7F8948091C702EA
:1034A0009091C802A091C902B091CA024FBF821B7D
:1034B000930B08952FB7F8948091C7029091C8029A
:1034C000A091C902B091CA022FBF08956091AE02C7
:1034D000669570E04BE050E082E191E00E94A634F6
:1034E000892B19F481E0809392020E945A1A9093DA
:1034F0008B0280938A028091900280FF08C08CEB3F
:103500009BE09F938F930E94720A0F900F900895F3
:103510009091AE0290FF55C0917081113CC09260B5
:103520009093AE026623F1F16091AE027091AF020A
:103530008091B0029091B1020E9413178091900285
:1035400080FF0FC08091AE0286951F928F9385EB0E
:103550009AE09F938F930E94720A0F900F900F90A2
:103560000F906091AE02669570E04BE050E082E112
:1035700091E00E94A634892B09F10E94771681E020
:1035800080938D0220E04091B1026091B002809161
:10359000AF020C942517853210F09864C1CF880FC4
:1035A000982BBECF8091900280FFDBCF8091AE023E
:1035B00086951F928F9387E99AE0CBCF0E94661A77
:1035C000DECF08958091AE0281608093AE0280913B
:1035D000900280FF0DC01F9281E08F9381ED9AE0F1
:1035E0009F938F930E94720A0F900F900F900F90ED
:1035F0008091AE0260E086950C94881A8091AE02AC
:103600008695815009F484E261E00C94881A8091D7
:10361000AE0286958F5F853208F081E061E00C9400
:10362000881A9091AE0290FF07C09695981720F0E7
:10363000961710F40C94071B61E00C94881A809183
:10364000900283FF7EC084E799E00E94D9098091AF
:1036500085021F928F938FE699E09F938F930E942C
:10366000720A8DE699E00E94D90980918602282F7E
:10367000082E000C330B3F938F938AE699E09F93BB
:103680008F930E94720A88E699E00E94D90980917E
:103690008702282F082E000C330B3F938F9385E66B
:1036A00099E09F938F930E94720A83E699E00E94AB
:1036B000D90980918802282F082E000C330B3F93E4
:1036C0008F9380E699E09F938F930E94720A8EE514
:1036D00099E00E94D90980918902282F082E000CB8
:1036E000330B3F938F938BE599E09F938F930E94C9
:1036F000720A88E599E00E94D90980917F021F92A1
:103700008F9385E599E09F938F930E94720A83E5DA
:1037100099E00E94D90980917E021F928F9380E5E3
:1037200099E09F938F930E94720A8DE499E00E9422
:10373000D9098DB79EB74C960FB6F8949EBF0FBEB1
:103740008DBF0E945A1A9C01909186028091870237
:10375000982B21F03093830220938202909188026B
:1037600080918902982B21F030938102209380026E
:10377000E091C202F091C302309749F082E0809359
:1037800084020480F581E02D84E892E00994089594
:1037900090E080E00E947E0C90E080E00E94680C47
:1037A00010922202109221020E94A81686E0E4E8FC
:1037B000F2E0DF011D928A95E9F710927F021092E4
:1037C0007D0210927E020C941F1B60934E02709338
:1037D0004F0280935002909351020C94C81B0F9398
:1037E0001F9341E050E060E070E004C0440F551FBB
:1037F000661F771F8A95D2F7CB01BA016095709545
:103800008095909500914E0210914F0220915002A8
:103810003091510260237123822393231F910F91D2
:103820000C94E51B0F931F9341E050E060E070E0C3
:1038300004C0440F551F661F771F8A95D2F78091E9
:103840004E0290914F02A0915002B09151028A0114
:103850009B01082B192B2A2B3B2BC901B8011F9167
:103860000F910C94E51B60932402709325028093C2
:103870002602909327020C94C81B10922302EEECB0
:10388000F1E086E0DF011D928A95E9F70C94C81BF0
:103890001F93CF93DF93CDB7DEB7AA970FB6F894F7
:1038A000DEBF0FBECDBF80EE92E02091F100DC01C3
:1038B0002D93CD01B2E0883E9B07B9F78091E102DC
:1038C000833009F46FC0B8F4813009F446C0823007
:1038D00009F4B0C08091E80083FF38C18091E00214
:1038E0009091E1029A3008F031C1E92FF0E0E95FF0
:1038F000F84C0C9466348A3009F48BC08B3009F490
:103900006EC0893039F78091E002813219F78091D9
:10391000E4029091E5020297E8F68091E800877F43
:103920008093E8008091E80082FF37C09091F30017
:103930008091F200029729F48091F1008B7F813011
:1039400021F48091F1008093D3028091E8008B777D
:103950008093E8000E94380BBDCF8091E002813A4D
:1039600009F0B8CF8091E800877F8093E8008091CC
:10397000E4029091E502892B61F468E084ED92E025
:1039800070E00E94EA0B8091E8008B778093E8005A
:10399000A1CF60E090E080E0F3CF8091DE02811162
:1039A000C1CF98CF8091E002813A09F093CF809106
:1039B000E4029091E502892B09F08CCF8091E80018
:1039C000877F8093E8008091E80080FFFCCF8091A2
:1039D00020018093F1008091E8008E77B9CF80912B
:1039E000E002813209F076CF8091E4029091E50205
:1039F000892B09F06FCF8091E800877F8093E800E2
:103A00000E94380B8091E202809320010E943D1CAD
:103A100061CF8091E002813209F05CCF8091E800B3
:103A2000877F8093E8000E94380B8091E3028093A7
:103A3000D20250CF8091E002813A09F04BCF8091C1
:103A4000E800877F8093E8008091E80080FFFCCF4A
:103A50008091D202BECF803899F0823809F076C0CA
:103A60008091E4028F70873008F070C08093E90085
:103A70008091EB0085FB882780F91092E90006C051
:103A80008091DC029091DD02911182609091E800BA
:103A9000977F9093E8008093F1001092F10080915D
:103AA000E8008E77B0C1882309F49DC1823009F007
:103AB0004DC08091E2028111A1C18091E4028F701A
:103AC0002FEF280F263008F041C08093E9002091A5
:103AD000EB0020FF93C1933031F48091EB008062C2
:103AE0008093EB008BC19091EB0090619093EB0081
:103AF00021E030E001C0220F8A95EAF72093EA0026
:103B00001092EA008091EB008860EACF81111EC01C
:103B10001091E2021F778091E3008078812B8093DF
:103B2000E3008091E800877F8093E8000E94380BD3
:103B30008091E80080FFFCCF8091E3008068809353
:103B4000E30082E0111183E08093DE028091E800BF
:103B500083FF0AC08091E800877F8093E80080910E
:103B6000EB0080628093EB00AA960FB6F894DEBF5C
:103B70000FBECDBFDF91CF911F9108958058823045
:103B800028F72091E2023091E3022C3DE3E03E076A
:103B9000A1F583E08A838AE289834FB7F894DE0136
:103BA000139620E03EE051E2E32FF0E050935700FF
:103BB000E49120FF03C0E295EF703F5FEF708E2F1E
:103BC00090E0EA30C0F0C7968D939D932F5F24312B
:103BD00059F74FBF8091E800877F8093E8006AE241
:103BE00070E0CE0101960E94EA0B8091E8008B778D
:103BF0008093E800ABCFC096E7CF8091E40290912C
:103C0000E502432F55274330510509F44AC078F5A2
:103C10004130510509F47AC08BE590E0EFE6F2E11E
:103C20004230510509F092CF2091E800277F209380
:103C3000E8002091E6023091E7028217930708F42A
:103C40009C0140E02115310509F065C0411163C0B8
:103C50008091E80082FDC9CF8091DE02882329F29D
:103C6000853019F28091E80083FFF2CFBECF413258
:103C7000510509F43CC04232510509F067CF833049
:103C8000910508F063CFFC01EE0FFF1FE354FE4FD8
:103C90000190F081E02D86549E4FDC018C9190E0E4
:103CA0001AC0332721303105D1F02115310561F0DB
:103CB0002230310509F04ACFECEDF2E1E4918E2F8C
:103CC00090E0ECEDF2E107C0E4E0F3E1E4918E2F47
:103CD00090E0E4E0F3E1009709F438CFA5CFE0EFFE
:103CE000F2E1E4918E2F90E0E0EFF2E1F4CF833047
:103CF000910508F02BCF880F991FFC01ED53FE4F63
:103D00000190F081E02D89E090E08ECF82E190E09B
:103D1000EAECF2E189CF8091DE02882309F465CFD5
:103D2000853009F462CF8091E80083FD5ECF8091F9
:103D3000E80082FD8DCF8091E80080FF83CF9091D5
:103D4000F3008091F2002115310519F088309105BA
:103D500050F041E0089709F040E08091E8008E774C
:103D60008093E8006FCF44914093F1003196215049
:103D700031090196E8CF803809F0E8CE8091E8005B
:103D8000877F8093E8008091DF028093F10087CEE7
:103D90008111DCCE1091E202123008F0D7CE809172
:103DA000E800877F8093E8001093DF020E94380BC1
:103DB000112311F084E005C08091E30087FDFACF64
:103DC00081E08093DE0242E061EC81E00E94570BCB
:103DD00042E261EC82E00E94570B42E261EC83E038
:103DE0000E94570BB3CE8091E202813009F0AECE33
:103DF00081E0933009F080E08093DD021092E900C9
:103E00008091E800877F8093E8000E94380B9ECE67
:103E10001F920F920FB60F9211242F933F934F933F
:103E20005F936F937F938F939F93AF93BF93CF9342
:103E3000DF93EF93FF93D091E900DF708091EC0066
:103E4000C82FC17080FDC0E81092E9008091F00099
:103E5000877F8093F00078940E94481C1092E900BC
:103E60008091F00088608093F000CD2BCF70C093DC
:103E7000E900FF91EF91DF91CF91BF91AF919F91B9
:103E80008F917F916F915F914F913F912F910F9003
:103E90000FBE0F901F901895882309F459C08238DF
:103EA00071F40E94940C81FF53C089E30E944D106D
:103EB0000E94A81689E30E9440100C94A81683382B
:103EC00059F40E94940C80FF43C083E50E944D107A
:103ED0000E94A81683E5EFCF843859F40E94940C11
:103EE00082FF36C087E40E944D100E94A81687E426
:103EF000E2CF9CEF980F913AF0F290E2980F983051
:103F000088F4877021E030E0A90102C0440F551FFA
:103F10008A95E2F7CA0180959091230289238093C4
:103F20002302CBCF9BE5980F933020F490E080E004
:103F30000C947E0C98E5980F973120F490E080E087
:103F40000C94680C8D3E20F00E94620D0C941F1B97
:103F50000895CF93C82F882309F490C08238C1F404
:103F60000E94940C81FD8AC089E30E944D100E943A
:103F7000A8162FEF81EE94E0215080409040E1F7A9
:103F800000C0000089E30E944010CF910C94A81655
:103F90008338A1F40E94940C80FD70C083E50E94D8
:103FA0004D100E94A8162FEF81EE94E02150804022
:103FB0009040E1F700C0000083E5E5CF8438A1F42C
:103FC0000E94940C82FD5AC087E40E944D100E940A
:103FD000A8162FEF81EE94E0215080409040E1F749
:103FE00000C0000087E4CFCF8CEF8C0F813A68F4DB
:103FF000EEECF1E08191C817D9F121E0E43DF20740
:10400000C9F78C2F0E944D10C0CF80E28C0F8830F2
:1040100068F4C77021E030E001C0220FCA95EAF7CA
:1040200080912302822B80932302AFCFEBE5EC0F2C
:10403000E33040F4F0E0E35CFE4F808190E0CF910C
:104040000C947E0CE8E5EC0FE73150F4F0E0EE0F55
:10405000FF1FE05CFE4F80819181CF910C94680C32
:10406000CD3E60F08C2F0E941D0ECF910C941F1B33
:104070008C2F0E9440100E94A816C3CFCF910895A4
:104080001F93CF93DF93182FCAE0D0E0893311F448
:10409000C0E5D0E0812F0E94A91F8FE99FE0019722
:1040A000F1F700C000002197C1F7812FDF91CF9178
:1040B0001F910C944C1F0F931F93CF93DF93C62F28
:1040C000D42F022FFC0182818823A1F06093EA02A1
:1040D0000E945A1A9093E9028093E802C77081E027
:1040E00001C0880FCA95EAF7DF91CF911F910F9118
:1040F0000C9409178091EA02681335C08091E80298
:104100009091E9020E944B1A883C910560F510E2FB
:104110001D0FCD17B9F080E28C0F883040F4C770C6
:1041200081E001C0880FCA95EAF70E94FE16183098
:1041300048F481E09D2F977001C0880F9A95EAF7A7
:104140000E940917802F0E944020183098F4D770E1
:1041500081E001C0880FDA95EAF7DF91CF911F91D6
:104160000F910C94FE16C77081E001C0880FCA95AC
:10417000EAF7F3CFDF91CF911F910F9108958F92BE
:104180009F92AF92BF92CF92DF92EF92FF920F93E6
:104190001F93CF93DF9300D000D000D0CDB7DEB710
:1041A0008E010F5F1F4F86E0F80111928A95E9F7A3
:1041B0008EE6A82E81E0B82EF12CE12CCC24C394FD
:1041C000D12CF50181915F018F3F09F449C0F8942A
:1041D000E82FE295EF70F0E021A18F70A60102C0F8
:1041E000440F551F8A95E2F7CA01922F982B91A38D
:1041F00092A18095892382A3789400C0E4E7F1E03E
:1042000030E020E0912C41914F3F09F473C0A42F7E
:10421000A295AF70B0E090968C9190E04F7002C084
:10422000959587954A95E2F780FD64C08C2D022E06
:1042300001C0880F0A94EAF7982A2F5F3F4F253074
:10424000310509F7F501319780818F3F11F00E9408
:10425000770E50EA5A95F1F7F801EE0DFF1D9082A6
:104260008FEFE81AF80AE6E0EE16F10409F0A9CF9C
:1042700046E050E0B8018FE292E00E94B334FF24A0
:10428000F394009709F4F12C892BB1F186E0F80141
:10429000AFE2B2E001900D928A95E1F781E0809360
:1042A0002A020E945A1A9093290280932802809130
:1042B0002802909129020E944B1A059708F18091DB
:1042C0002F028093380280913002809339028091CE
:1042D000310280933A028091320280933B028091B6
:1042E000330280933C028091340280933D0210920D
:1042F0002A0206C080E0A0CF80912A028111D7CF88
:1043000080912B0290912C020E944B1A893E93407F
:1043100060F160914502062F10E066277727601B49
:10432000710B072E000C880B990B0E94BD3527EAF4
:1043300039E747E45DE30E948A364B015C01B8012E
:10434000110F880B990B0E94BD359B01AC01C50173
:10435000B4010E9409350E948C35609345020E9489
:104360005A1A90932C0280932B028F2D26960FB60B
:10437000F894DEBF0FBECDBFDF91CF911F910F919B
:10438000FF90EF90DF90CF90BF90AF909F908F9075
:1043900008958F929F92AF92BF92CF92DF92EF9249
:1043A000FF920F931F93CF93DF9300D000D00F9213
:1043B000CDB7DEB77C01FC0183819481892B39F074
:1043C0001081D180812F8D218F3F09F0E4C50F909E
:1043D0000F900F900F900F90DF91CF911F910F9141
:1043E000FF90EF90DF90CF90BF90AF909F908F9015
:1043F00008950E947010082F682F89819A810E9469
:104400000B11E12FF0E025E0D29EE00DF11D11240B
:104410004EE1049FE00DF11D1124EE0FFF1FEE5A37
:10442000FD4F05911491F7018281882309F469C039
:10443000C80190568115F0E29F0750F0905E8115FB
:1044400020E1920728F0915C81159F4108F07CC023
:10445000C80199279C01245031092432310550F0BC
:10446000275231092E30310528F08F549109459794
:1044700008F047C080912B0290912C020097D9F14F
:104480000E944B1A9C0150E040E060E67AEE80E02A
:1044900090E00E944734CA01B90125E030E040E0D5
:1044A00050E00E944734C09045022F3F310519F07B
:1044B00010F02FEF30E0D12C2C193D09B90190E01C
:1044C00080E00E94BB3527EA39E747E45DE30E94BC
:1044D0008A360E9475354B015C01B601DD0C880BF4
:1044E000990B0E94BD35A50194010E9409350E94D7
:1044F0008C35609345020E945A1A90932C02809347
:104500002B0203365DE5150709F4A6C030F5013E20
:10451000110509F4ACC0043FFCE51F0709F4D1C044
:1045200008F0AAC0093D4CE5140709F4C6C00A3DCD
:104530005CE5150709F4D1C0083D8CE51807F1F4D6
:1045400026E241EE61EEA5C090E080E00F3F11054C
:1045500011F008F07FCFC8017DCF04369DE5190723
:1045600009F46DC00536EDE51E07A9F6F701828155
:10457000882309F461C081E080934602F7019281AB
:10458000992309F419C51092EA020230FCE51F07CD
:1045900008F47FC106312CE5120738F098012B5F33
:1045A0003C452930310508F074C10E948118909370
:1045B0002E0280932D0200314CE5140709F438C116
:1045C00008F0C6C008308CE5180709F427C108F0C8
:1045D00095C00430ECE51E0709F414C108F080C052
:1045E00002302CE5120709F407C180912D02826088
:1045F00003301C4509F403C160912D0210912E0275
:1046000084E090E00E94D434612F82E290E00E9426
:10461000D4340F900F900F900F900F90DF91CF91A7
:104620001F910F91FF90EF90DF90CF90BF90AF90D0
:104630009F908F900C943D1C109246029FCFF701E3
:104640008281882331F081E08093490210920A012F
:1046500095CF1092490292CFF7018281882321F0F1
:1046600081E0809347028ACF1092470287CFF701FB
:10467000828180933E0282CF063F9CE5190749F173
:1046800020F127E245EE66EE073FFCE51F0709F043
:1046900075CFC7010F900F900F900F900F90DF9183
:1046A000CF911F910F91FF90EF90DF90CF90BF902F
:1046B000AF909F908F900C945B2027E245EE65EEC3
:1046C000E8CF26E241EE60EEE4CF27E245EE64EE6D
:1046D000E0CF26E241EE62EEDCCF28E241E0EFCF10
:1046E00080912D02806106305CE5150709F487C0D2
:1046F00008F48CC080912D02806281C080912D02CF
:104700008D7F0C309CE5190709F479C070F4809115
:104710002D028C600A30FCE51F0709F470C008F414
:1047200081C080912D028E7F6AC080912D02877F8B
:104730000E304CE5140709F462C080912D028B7F86
:104740000F301C4508F45BC080912D028F7E57C04E
:104750000C3F8CE5180709F45DC030F50331ECE53A
:104760001E0709F46DC078F401312CE5120709F435
:1047700063C002311C4509F03FCF0E943D1C80916F
:104780002D028F773CC005315CE5150709F460C048
:1047900008F474C080912E0281600B3F1C4509F023
:1047A0002BCF80932E0228CF0115EDE51E0709F4CB
:1047B0004BC088F480912E028D7F0E3F2CE51207AE
:1047C00081F380912E028E7F0F3F1C4550F3809124
:1047D0002E028360E6CF02305DE5150709F457C06D
:1047E00008F442C060E003301D4509F005CF8EE0BB
:1047F00090E00E94D43400CF80912D02816080939C
:104800002D02FACE80912D028460F9CF80912D0285
:104810008860F5CF80912E028260C3CF80912D02F7
:104820008064EDCF0E943D1C80912D028068E7CF0F
:1048300080912D028F7DE3CF80912D028F7BDFCF82
:1048400080912D02837FDBCF80912E028C7FA9CFB8
:1048500080912D0282FB992790F921E0922790FB0D
:1048600082F990FB83F9CBCF80912E02982F9095FF
:1048700091708E7F892B90FB81F993CF0E943D1C14
:1048800090912D02892F97FB87F98058B8CF61E06E
:10489000AECF809123020631ECE51E0709F098C3E4
:1048A0008A7A91E009F490E09093D401811116C0C6
:1048B00089E20E944D100F900F900F900F900F9073
:1048C000DF91CF911F910F91FF90EF90DF90CF90EC
:1048D000BF90AF909F908F900C94A81685E3E9CF7E
:1048E00085E373C38091900280FF10C08091AE0277
:1048F000809581701F928F9388EF91E09F938F93A3
:104900000E94720A0F900F900F900F908091AE024C
:1049100080FF3EC08E7F8093AE026091AE027091A8
:10492000AF028091B0029091B1020E941317809162
:10493000900280FF0FC08091AE0281701F928F9312
:1049400089E891E09F938F930E94720A0F900F90D5
:104950000F900F900E947716FFEF20E742E0F15092
:1049600020404040E1F700C000000F900F900F90F2
:104970000F900F90DF91CF911F910F91FF90EF90CB
:10498000DF90CF90BF90AF909F908F900C942313A7
:1049900081608093AE028091900280FF0DC01F92D3
:1049A00081E08F9381EC91E09F938F930E94720A34
:1049B0000F900F900F900F908091AE0261E086955E
:1049C0000F900F900F900F900F90DF91CF911F914C
:1049D0000F91FF90EF90DF90CF90BF90AF909F909E
:1049E0008F900C94881A4EEF5AE167E07BE10F90AC
:1049F0000F900F900F900F90DF91CF911F910F911B
:104A0000FF90EF90DF90CF90BF90AF909F908F90EE
:104A10000C94B70C47E05BE16EEF7AE1E8CF47E436
:104A200058E16EE378E1E3CF46E258E162E378E1F2
:104A3000DECF4EE058E16AE178E1D9CF4AE158E1B2
:104A40006EE078E1D4CF41E658E160E578E1CFCF80
:104A500061E081E0B5CF65E082E00F900F900F90AC
:104A60000F900F90DF91CF911F910F91FF90EF90DA
:104A7000DF90CF90BF90AF909F908F900C94111BC0
:104A800068E086E0EACF64E18FE0E7CF67E185E1A7
:104A9000E4CF62E289E1E1CF61E083E291CF9091DE
:104AA0009002892F8E7F90FF81608093900280FF1B
:104AB00015C081E492E00F900F900F900F900F902F
:104AC000DF91CF911F910F91FF90EF90DF90CF90EA
:104AD000BF90AF909F908F900C94D9098FE292E095
:104AE000EACF0F900F900F900F900F90DF91CF9122
:104AF0001F910F91FF90EF90DF90CF90BF90AF90FC
:104B00009F908F900C948F18F70110810181812F55
:104B1000992389F1902F0E947010D82E682F812F31
:104B2000902F0E940B11E12FF0E025E0029FE00D95
:104B3000F11D11244EE1D49EE00DF11D1124EE0F64
:104B4000FF1FEE5AFD4F859194910E94D10E182FB0
:104B5000B82EF70122814581342F32953F70892F7D
:104B600082958F70C82ED12C8C30E8F5F601EF5E5F
:104B7000F84C0C946634902F0E94E210D82ED3CFBC
:104B8000092F0F70907F11F00295007F812F222353
:104B9000C9F0002369F090E2910F983010F01111E4
:104BA0000BC080912302082B009323020E94A816B9
:104BB000812F0E94A91F17C080912202082B009309
:104BC0002202F4CF0E944C1F002369F00095105E72
:104BD000183010F0B11030C08091230208230093E8
:104BE00023020E94A81698E0C91AD108E4E0CE1664
:104BF000D10410F40E94940C85E0F701DE011196B7
:104C000001900D928A95E1F789819A810E94E210C4
:104C10009A81E981F0E025E0929FE00DF11D1124D9
:104C20004EE1849FE00DF11D1124EE0FFF1FEE5A9F
:104C3000FD4F85919491CBCB809122020823009364
:104C40002202CFCF892F8F70907F903211F0829502
:104C5000807FF1E0BF120EC0222331F0363008F021
:104C6000C2CF0E940917BFCF353008F0BCCF0E94D9
:104C7000FE16B9CF222341F0332399F340FF98CF9A
:104C80004F70F7014583EDCF332389F3193309F0D2
:104C90007AC1FFEF27EE43E0F15020404040E1F7BA
:104CA00000C00000812F0E944C1F9DCF892F869548
:104CB0008695837061F0813009F095CF812F9370D4
:104CC000211102C090E080E00E94680C8CCF812FFF
:104CD0009370211102C090E080E00E947E0C83CF8F
:104CE000812F222329F00E941D0E0E941F1B7BCFC3
:104CF0000E94620DFACF892F837009F065C02111DF
:104D000072CF812F829586958770880F880F612FCB
:104D10006F70862E912CB12CA12C082E04C0880C0B
:104D2000991CAA1CBB1C0A94D2F740E050E0BA01BF
:104D300014FF0FC04FE050E060E070E004C0440F8B
:104D4000551F661F771F8A95D2F74095509560953D
:104D50007095969596959370923019F1D8F40091CC
:104D600024021091250220912602309127029130D1
:104D700069F0482959296A297B29CB01BA016023A6
:104D80007123822393230E94331C2DCF802A912AE2
:104D9000A22AB32ACB01BA01682979298A299B2939
:104DA000F2CF482959296A297B29009124021091C0
:104DB00025022091260230912702CB01BA016027FB
:104DC000712782279327DFCF8695222311F0892F21
:104DD0008170882309F407CF812F8295869587708B
:104DE000880F880F612F6F70862E912CB12CA12C0B
:104DF000082E04C0880C991CAA1CBB1C0A94D2F76C
:104E000040E050E0BA0114FF0FC04FE050E060E016
:104E100070E004C0440F551F661F771F8A95D2F7B4
:104E200040955095609570959695969593709230B3
:104E300019F1D8F400914E0210914F0220915002C6
:104E400030915102913069F0482959296A297B290A
:104E5000CB01BA0160237123822393230E94E51BB7
:104E6000C2CE802A912AA22AB32ACB01BA0168298C
:104E700079298A299B29F2CF482959296A297B292E
:104E800000914E0210914F02209150023091510238
:104E9000CB01BA016027712782279327DFCF092F23
:104EA0000F70222329F0802F0E94121C812FD9CE4F
:104EB000812F0E94FE16802F0E94EF1B94CE812F1F
:104EC000E1EF1E1709F442C0E11758F0F0EF1F1789
:104ED000F1F0222309F44BC031116ACE892F8F7172
:104EE0003AC042EF1417D1F153EF1513F2CF22233A
:104EF000D1F1292F2F7161E070E080E090E004C0D3
:104F0000660F771F881F991F2A95D2F7A7CF2223F4
:104F1000C9F0353008F067CE292F2F7161E070E0BD
:104F200080E090E004C0660F771F881F991F2A95C4
:104F3000D2F700914E0210914F0220915002309111
:104F40005102A8CF363008F04ECEE6CF892F8F71B0
:104F5000222309F4B1CF0E94121C45CE892F8F71F4
:104F60002223C9F3A9CF60E070E0CB0177CF3323D0
:104F700079F0893341F48FEF97EEE3E08150904070
:104F8000E040E1F78DCE8FE39CE90197F1F788CE01
:104F9000892F8F7191CF85E0DE01119601900D92DE
:104FA0008A95E1F7F701228189819A81211121CA2D
:104FB0000E94E210082F25CA06311C4509F0A4CD35
:104FC0008091D40181118CCC89E20E94401073CC75
:104FD00082720D3C2CE5120709F435CD08F05EC055
:104FE000073C5CE5150709F41ACDA8F5043CFCE57F
:104FF0001F0709F4F8CC00F5033C4CE5140709F44D
:1050000071CC01305CE5150709F449CD0F3D8CE505
:10501000180709F466CD01151C4509F075CD0E94ED
:105020003D1CFFEF24E34CE0F15020404040E1F70D
:1050300000C000000E944B0C053C5CE5150709F41C
:10504000E9CC4EE358E167E478E1063CECE51E0765
:1050500009F4CDCCD6CF0A3CFCE51F0709F4E9CC16
:1050600070F4083C4CE5140709F4DECC093C5CE51F
:10507000150739F642E358E166E278E1B8CC0B3C1B
:10508000ECE51E0709F4DACC40E558E161E678E189
:105090000C3CFCE51F0709F4AACCB3CF023D2CE57C
:1050A000120709F4F0CCA0F40F3C5CE5150709F4F5
:1050B000D2CC08F4CDCC003DECE51E0709F4E0CCE1
:1050C0006EE089E0013DFCE51F0709F4C6CC99CFED
:1050D000053D2CE5120709F4DCCC68F4033D5CE5E2
:1050E000150709F4D3CC043D8CE5180709F089CFE6
:1050F00061E088E165CC063DECE51E0709F4CCCC07
:105100000E35FDE51F0709F462C97BCF1F93CF93CE
:10511000DF938091EE01807FA9F48091EB018823D9
:1051200089F080912002D091EF016091E9017091A6
:10513000EA01A091EC01B091ED01C62FC72316E062
:10514000D81304C0DF91CF911F91089590E010977C
:1051500011F0CF3F19F401968770F2CF189F90019C
:10516000199F300D1124F901E051FE4F4181471381
:10517000F2CF40814613EFCF42814111ECCF438102
:1051800054814A1B5B0B483C510528F78091EE0186
:105190008F7080618093EE01F901EB50FE4F8081AA
:1051A0008F708061808389EE91E00E94C921DF9138
:1051B000CF911F910C946610AF92BF92CF92DF9265
:1051C000EF92FF920F931F93CF93DF93CDB7DEB78C
:1051D00061970FB6F894DEBF0FBECDBF8C0185E09E
:1051E000F801DE011D9601900D928A95E1F7F80114
:1051F000E28089EEA82E81E0B82E6091EC017091DA
:10520000ED016115710509F432C19091E9014091F8
:10521000EA01892F84238F3F09F429C1208131813C
:10522000C380D480F090EB01F601E61BF70BFF2062
:1052300009F4E8C08091EE01582F507FE83CF10559
:1052400008F0ABC0511177C0FE2C431321C092135C
:105250001FC0E1101DC08F7080618093EE01C501F9
:105260000E94C9218091EE01F80185838F2D6196FE
:105270000FB6F894DEBF0FBECDBFDF91CF911F9167
:105280000F91FF90EF90DF90CF90BF90AF90089577
:10529000CD2829F0822F83238F3F09F003C180E0BE
:1052A000F82FF170DF2E80FF3CC0809120024091EA
:1052B000EF0156E0841315C02D873E878D859E85AE
:1052C0000E94C710292F22952F702230F0F0243031
:1052D00018F59F70F1F0F8019581907FD1F4D12CF1
:1052E0001EC090E0589FF001599FF00D1124E0512D
:1052F000FE4F6181361306C06081261303C06281B0
:10530000E6120FC001968770D5CF9F7011F08823E9
:1053100031F3805E883018F3C8010E94C921FD2C4A
:10532000A5CFEE2009F4A2CF8091EE018160809399
:10533000EE01F12C9BCF431306C0921304C0F80179
:10534000EE2009F479C0C8010E943911882309F1BF
:10535000EE20F9F08091EE01803270F02091E901A9
:105360003091EA0138872F831986DB86CA868C87BD
:10537000CE0107960E94C92186E0F801A9EEB1E0AE
:1053800001900D928A95E1F70E948628FF24F394FC
:105390006DCFC8010E94C921F9CF51110AC089EE11
:1053A00091E00E94C92186E0F50111928A95E9F702
:1053B000C0CF43130FC092130DC0E1100BC0F80112
:1053C0008583C8010E94C92186E0F50111928A9562
:1053D000E9F74CCFC8010E9439118823D1F2EE20A1
:1053E000C1F28091EE01803238F22091E9013091D2
:1053F000EA013A8329831B82DD82CC828E83CE012F
:105400000196B8CFE83CF105F8F6FE2CEE2009F243
:1054100043131FC092131DC08091EE0180FD10C088
:10542000982F907F69F0F8018583903F31F0982F95
:10543000907F905F8F70892B8583C8010E94C9215E
:1054400086E0F801A9EEB1E001900D928A95E1F7AE
:105450000DCFC8010E94391181118ECF8091EE01CC
:1054600081608093EE01C8010E94C921FFCEEE2029
:1054700009F48FCFC8010E943911F82E882309F44E
:1054800088CF86E0F801A9EEB1E001900D928A95EF
:10549000E1F78091E9019091EA010E94C7100E9412
:1054A0008628E4CE81E08E25FBCE1F93CF93DF9339
:1054B000CDB7DEB767970FB6F894DEBF0FBECDBF8E
:1054C0004B8B5C8B6D8B7E8B8F8B611110922202CC
:1054D0001A8A198A85E0FE017396DE011D960190F5
:1054E0000D928A95E1F786E0FE013D96DE01179662
:1054F00001900D928A95E1F7CE0107960E94DC2873
:10550000882389F016E0809120029091EF018913A1
:1055100049C067960FB6F894DEBF0FBECDBFDF91CE
:10552000CF911F91089586E0FE013796DE01119616
:1055300001900D928A95E1F78A859B85892B11F35D
:105540008F81988589238F3FE9F22091EF0130E028
:10555000C9010196877099274091200248171906C2
:1055600071F40E943D1C1092EF011092200286E01F
:10557000E9EEF1E0DF011D928A95E9F7C3CF96E0ED
:10558000929FD001939FB00D1124A051BE4FFE01F8
:10559000319601900D929A95E1F78093EF010E9468
:1055A0006610B0CF819FC001112480519E4F0E9490
:1055B000DC28882309F4ADCF8091200290E0019689
:1055C00087709927809320029ECF1F921FB61F924B
:1055D00011248F939F93AF93BF938091C602811143
:1055E00013C08091C7029091C802A091C902B091E6
:1055F000CA024196A11DB11D8093C7029093C802B3
:10560000A093C902B093CA02BF91AF919F918F91AD
:105610001F901FBE1F901895CDB7DEB765970FB6C8
:10562000F894DEBF0FBECDBF84B7877F84BF0FB6AF
:10563000F894A89580916000886180936000109232
:1056400060000FBE80E890E00FB6F8948093610090
:10565000909361000FBE85B7806885BF85B780686D
:1056600085BF80E492E19093CB018093CA010E94B0
:10567000BE0A0E94890B8091E20084608093E20060
:1056800078948091DE028823A1F01091E9001F70C8
:105690009091EC00892F817090FD80E8182B10927A
:1056A000E9008091E80083FD0E94481C1F70109360
:1056B000E90082E084BD93E095BD9AEF97BD8093A9
:1056C0006E000EE611E094E7E92E91E0F92ED80184
:1056D0008D918D018F3F11F00E94770EE016F1063B
:1056E000B1F704E711E089E7E82E81E0F82EF80130
:1056F00081918F018F3F11F00E94770EE016F10625
:10570000B1F7EFE2F2E085E392E0A8E3B2E01192B4
:105710001D928E179F07D9F790E080E00E94CE344B
:10572000893E9E4F11F00E948F1882E090E00E9407
:10573000C034809390020E94811890932E0280932F
:105740002D020E94BF208FE39CE90197F1F700C072
:1057500000000E94BF208091380281FF08C06FEFD7
:105760007FEF90E080E00E94F2340E944B0C83E0D7
:1057700090E00E94C034682F70E090E080E00E94CA
:10578000331C83E08093740280E28093B3020E9412
:10579000EA326DE070E088E693E00E94C511892B43
:1057A00009F4AFC18CE493E00E94D90980913502DD
:1057B0008111E0C08091900280FF14C087EB94E0DB
:1057C0009F938F930E94720A809190020F900F9086
:1057D00080FF08C081EA94E09F938F930E94720A31
:1057E0000F900F9090E080E00E94CE34893E9E4F53
:1057F00081F08091900280FF08C089E794E09F9338
:105800008F930E94720A0F900F900E948F180E942F
:10581000721888E090E00E94C8346093AE027093E2
:10582000AF028093B0029093B1026E7FD1F4809169
:10583000900280FF08C080E394E09F938F930E94C2
:10584000720A0F900F900E94721888E090E00E94F8
:10585000C8346093AE027093AF028093B00290930D
:10586000B1020E94BD0C8091900280FF76C087E15A
:1058700094E09F938F930E94720A809190020F9000
:105880000F9080FF6AC08091AE0281701F928F934B
:105890008AEF93E09F938F930E94720A8091900207
:1058A0000F900F900F900F9080FF57C08091AE0225
:1058B00086951F928F938FED93E09F938F930E9415
:1058C000720A809190020F900F900F900F9080FFBE
:1058D00044C08091AF021F928F9385EC93E09F9319
:1058E0008F930E94720A809190020F900F900F90F8
:1058F0000F9080FF32C08091B0021F928F938BEA8D
:1059000093E09F938F930E94720A809190020F9070
:105910000F900F900F9080FF20C08091B1021F92D6
:105920008F9381E993E09F938F930E94720A8091F5
:1059300090020F900F900F900F9080FF0EC08091FB
:10594000B2021F928F9385E793E09F938F930E94FB
:10595000720A0F900F900F900F9010929202809108
:10596000AE0280FF04C060E086950E94881A81E044
:10597000809335026DE871E0B3E48B2EB2E09B2E8C
:1059800029E831E0EBE8F1E041E050E01191812FAE
:1059900082958F7090E0DC019196FC9091971F703A
:1059A000E12E6A0101C0CC0C1A95EAF70C2D009586
:1059B0000F2191960C93919792961C9192971C2986
:1059C00092961C93D901FD909D010F2D02950F70A9
:1059D00010E0D8019196BC90BF2DBF70FB2E6A01DC
:1059E00001C0CC0CBA95EAF7DC2CD094DB20D801AE
:1059F0009196DC9291979296DC909297DC28929601
:105A0000DC92DC0190968C9190E002C09595879590
:105A1000EA94E2F78170D80190960C9110E002C0F0
:105A200015950795FA94E2F790E000FD92E0892B36
:105A3000D4018D934D016E177F0709F0A7CF80E049
:105A400091E09093C3028093C2028EEC94E00E9496
:105A5000D90988E392E0B6E0B80FBB8B8091DE02F3
:105A60008530E1F489E499E00E94D909FF24F39498
:105A700000E112E18091DE02853009F48FC00E94BE
:105A80003D1C0E94940C10923702809136028111C5
:105A90000E94E21A0E94661A0E94E21A0E94BF2027
:105AA000582E81110E945C0CE7E76E2EE2E07E2EFC
:105AB000F8E3CF2EF2E0DF2E10E000E0A1EEAA2EF8
:105AC000A4E0BA2E202ED6014D906D01F301319045
:105AD0003F013410AFC00F5F1F4F0630110591F723
